:040000000CEF00F011
:10000800FACF44F0FBCF45F0E9CF46F08AED0BF08C
:0400180077EF0FF07F
:100D000001000A006400E8031027257322257322DE
:100D10003A20222573222C0A7D0025732225732276
:100D20003A2025642C0A7D007368697466616365E6
:100D300000286E756C6C290073656E736F720022EB
:100D40002573223A2000222573222573006E616DDF
:100D5000650066726F6D007B0A7D006D7367006BC6
:100D60006579002C0A00746F0000000E1E6E130ED1
:100D70001D6E0ED12350250AD8B401D001D009D060
:100D80000FC0D9FF10C0DAFF23C0DFFF0F4A102ABF
:100D9000FFD0196E000E1B6E195050D00ED16BD0C3
:100DA0006AD01DC0D9FF1EC0DAFFDECF1FF0DDCF35
:100DB00020F0020E1D26000E1E2220501F10D8A467
:100DC00001D001D021D00D0E206E310E1F6E1CD02F
:100DD0001BD01FC0F6FF20C0F7FF000EF86E0FC03B
:100DE000D9FF10C0DAFF0C0EF76403D00800F550ED
:100DF00005D0F6CFE9FFF7CFEAFFEF50DF6E1F4ACD
:100E0000202A0F4A102A00D01FC0F6FF20C0F7FF8B
:100E1000000EF86E0C0EF76403D00800F55005D0F4
:100E2000F6CFE9FFF7CFEAFFEF500009D8A401D0D1
:100E300001D0CFD7ADD0ACD0ABD01DD01150196EF2
:100E400012501A6E114A122A19C0F6FF1AC0F7FF83
:100E5000000EF86E0800F5CF23F02350000AD8B436
:100E6000ACD0640AD8B407D00D0AD8B404D01A0A9A
:100E7000D8B497D78DD01DC0D9FF1EC0DAFFDECF02
:100E80001FF0DDCF20F0020E1D26000E1E2220AE28
:100E900001D001D007D0030E1B121F6C201ED8B04A
:100EA000202A00D0196E010E236E19502350050A16
:100EB000D8A401D001D002D024D023D02350020DD9
:100EC000000EF324F66E0D0EF420F76EF86A000E95
:100ED000F8220900F5CF19F00900F5CF1AF01950E2
:100EE0001F5C1A502058D8B001D001D002D009D0D0
:100EF00008D0232A2350050AD8A401D001D0DED778
:100F000000D01B50030BD8B401D001D009D00FC0C2
:100F1000D9FF10C0DAFF2D0EDF6E0F4A102A00D065
:100F200023C01CF02DD01C50020D000EF324F66ED1
:100F30000D0EF420F76EF86A000EF8220900F5CFC6
:100F400003F00A00F5CF04F01FC001F020C002F04A
:100F5000B0EC0FF001C009F002C00AF0000E0C6EF8
:100F60000A0E0B6E4AEC10F00950300F236E0FC0C2
:100F7000D9FF10C0DAFF23C0DFFF0F4A102A00D0CC
:100F80001C061C28D8A401D001D0CDD701D000D098
:100F90001150196E12501A6E114A122A19C0F6FF1A
:100FA0001AC0F7FF000EF86E0800F5CF23F0236695
:100FB00001D001D0DFD601D000D00FC0D9FF10C0C2
:100FC000DAFF000EDF6E00D01200C7A601D001D0FC
:100FD00018D0C7B401D001D014D0C7BA01D001D005
:100FE00010D0C7A001D001D00CD0C9CF30F0316AE9
:100FF000C688000E00010001856F000E0001846F9D
:1010000000D0C7B601D001D004D0C7A801D001D00C
:101010004AD0C7B401D001D046D0C7AA01D001D070
:1010200042D0C7A001D001D03ED0C9CF34F0356A3C
:101030000701000E000100018425D96E0701070E8B
:10104000000100018521DA6E34C0DFFF0701000EC8
:10105000000100018425D96E0701070E000100017F
:101060008521DA6EDF50D8A401D001D016D000015E
:10107000000193519211D8B401D001D00ED092C08A
:1010800005F093C006F00701070E086E0701000E79
:10109000076E26EC0EF001D000D000010001844B59
:1010A000852BC688A3D0C7A601D001D045D0C7A440
:1010B00001D001D041D0C7BA01D001D03DD000014C
:1010C000000191519011D8A401D001D023D000018A
:1010D0000001B751B611D8B401D001D00FD001D85A
:1010E0000CD00500FA6E00010001B651FD6E000142
:1010F000B751FE6EFF6AFA50120000D0000E0001D8
:101100000001916F010E0001906F000E596E000EEC
:10111000586E00D0C9CF32F0336A0701000E582450
:10112000D96E0701070E5920DA6EDF50C96EC688E6
:101130008978897889785AD0C7A601D001D03FD064
:10114000C7A401D001D03BD0C7AA01D001D037D06D
:10115000C7B001D001D033D00001000191519011EE
:10116000D8B401D001D042D0010E5824586E000EE0
:101170005920596E0701000E5824D96E0701070E39
:101180005920DA6EDF50C96E897A897A897A070127
:10119000000E5824D96E0701070E5920DA6EDF5071
:1011A000D8A401D001D008D0000E00010001916F39
:1011B000000E0001906F00D0C68818D017D0C7A6C7
:1011C00001D001D013D0C7AA01D001D00FD0C7B031
:1011D00001D001D00BD0C6A801D001D007D0897EA4
:1011E000897E897E03D002D001D000D01200020196
:1011F000020E106E0201000E0F6E0D0E126E460EE4
:10120000116E26C013F027C014F00D0E166E430E9B
:10121000156EB5EC06F024C010F025C011F00201E7
:10122000020E136E0201000E126E79EC0DF010C06A
:1012300040F011C041F040C010F041C011F00D0E5F
:10124000136E440E126E79EC0DF010C040F011C018
:1012500041F0404A412A41504010D8B401D001D059
:10126000A3D040C010F041C011F00D0E136E630EFC
:10127000126E79EC0DF010C036F011C037F040C09E
:1012800001F041C002F01BEC10F001C02EF002C0D2
:101290002FF0306A316A36C001F037C002F01BEC23
:1012A00010F001C032F002C033F0346A356A32C047
:1012B0002AF033C02BF034C02CF035C02DF02A1E9C
:1012C0002B1E2C1E2D1E2A2A000E2B222C222D22F4
:1012D0002E502A24386E2F502B20396E30502C205F
:1012E0003A6E31502D203B6E000E3D6E000E3C6E6E
:1012F00013D03C504024D96E3D504120DA6E02019B
:10130000000E3C24E16E0201020E3D20E26EDFCFB2
:10131000E7FF3C4A3D2A00D03CC02AF03DC02BF0FC
:10132000000E2BBEFF0E2C6E2D6E38502A5C3950ED
:101330002B583A502C583B502D58D8A001D001D0F2
:10134000D8D700D00201000E3824D96E0201020E57
:101350003920DA6E000EDF6E0201020E3F6E0201CE
:10136000000E3E6E3E4A3F2A3EC001F03FC002F0F2
:101370001BEC10F0FF0E01242A6EFF0E02202B6ED4
:101380002A503E24D96E2B503F20DA6E000EDF6EBD
:1013900028C001F029C002F03EC003F03FC004F0B5
:1013A00078EC10F001D000D012005C045D10D8A4DD
:1013B00001D001D010D020EE02F05A50D9265B5057
:1013C000DA22DF50096ED8800934C96E000E5D6ED6
:1013D000060E5C6E8ED05C50060A5D10D8A401D05B
:1013E00001D006D0C586000E5D6E050E5C6E81D004
:1013F0005C50020A5D10D8B401D001D008D05C5016
:10140000050A5D10D8A401D001D046D000D020EE4E
:101410006AF05A50D9265B50DA22DECF09F0DDCFD0
:101420000AF0040E0926000E0A2209505A24D96E29
:101430000A505B20DA6EC9CFDFFF20EE6AF05A5007
:10144000D9265B50DA22DECF09F0DDCF0AF0040E98
:101450000926000E0A2209505A24D96E0A505B2030
:10146000DA6EDF50D8A401D001D006D0C584000EBA
:101470005D6E040E5C6E06D0000E5D6E060E5C6E38
:10148000C58800D020EE6AF05A50D9265B50DA2287
:10149000DE2A000EDD222DD05C50040A5D10D8A497
:1014A00001D001D026D020EE6CF05A50D9265B50E6
:1014B000DA22DECF05F0DDCF06F0040E5A24076EE7
:1014C000000E5B20086E26EC0EF020EE02F05A5063
:1014D000D9265B50DA22FF0EDE6EFF0EDD6E000EA7
:1014E0005B6E000E5A6EE6EC0FF003D002D001D016
:1014F00000D012005C045D10D8A401D001D010D03F
:1015000020EE02F05A50D9265B50DA22DF50096EE5
:10151000D8900934C96E000E5D6E020E5C6E7FD0ED
:101520005C50020A5D10D8B401D001D008D05C50E4
:10153000030A5D10D8A401D001D047D000D020EE1E
:101540006AF05A50D9265B50DA2210EE68F05A50F1
:10155000E1265B50E222E652DE52E550800A096E37
:10156000DD50800A095C02E1DF50E75CD8B001D0B1
:1015700001D024D020EE68F05A50D9265B50DA22F0
:10158000DECF09F0DDCF0AF0040E0926000E0A2294
:1015900009505A24D96E0A505B20DA6EDF50C96EAA
:1015A00020EE68F05A50D9265B50DA22DE2A000E6F
:1015B000DD22000E5D6E030E5C6E31D0C584000E20
:1015C0005D6E040E5C6E2BD02AD05C50040A5D1058
:1015D000D8A401D001D023D020EE6CF05A50D926E7
:1015E0005B50DA22DECF05F0DDCF06F0000E086E8C
:1015F000000E076E26EC0EF020EE02F05A50D926AF
:101600005B50DA22FF0EDE6EFF0EDD6E000E5B6EAB
:10161000000E5A6EE6EC0FF002D001D000D012009E
:101620000001000171517011D8B401D001D01FD058
:101630007EC001F07FC002F072C003F073C004F0FE
:10164000D2EC0DF002500110D8A401D001D00FD07F
:1016500001D80CD00500FA6E000100017051FD6E3A
:1016600000017151FE6EFF6AFA50120000D00001B5
:10167000000175517411D8B401D001D01FD07EC0C3
:1016800001F07FC002F076C003F077C004F0D2EC26
:101690000DF002500110D8A401D001D00FD001D814
:1016A0000CD00500FA6E000100017451FD6E0001BE
:1016B0007551FE6EFF6AFA50120000D00001000161
:1016C00079517811D8B401D001D01FD07EC001F07B
:1016D0007FC002F07AC003F07BC004F0D2EC0DF0C2
:1016E00002500110D8A401D001D00FD001D80CD0E5
:1016F0000500FA6E000100017851FD6E000179517C
:10170000FE6EFF6AFA50120000D0000100017E4B0D
:101710007F2B12000600EACF47F0E1CF48F0E2CF7E
:1017200049F0D9CF4AF0DACF4BF0F3CF4CF0F4CFF9
:101730004DF0F6CF4EF0F7CF4FF0F8CF50F0F5CF99
:1017400051F09EA601D001D018D09E960001000154
:10175000B551B411D8B401D001D003D0E5EC07F0F5
:1017600000D00001000195519411D8B401D001D0EE
:1017700004D09EEC11F001D000D0F2A401D001D031
:1017800004D0F294E7EC11F000D09EAA01D001D071
:1017900003D077EC0EF000D09EA801D001D003D08A
:1017A000C2EC0CF000D01FEC0DF0000100018151E3
:1017B0008011D8B401D001D003D0CCEC11F000D00E
:1017C00051C0F5FF50C0F8FF4FC0F7FF4EC0F6FF05
:1017D0004DC0F4FF4CC0F3FF4BC0DAFF4AC0D9FF45
:1017E00049C0E2FF48C0E1FF47C0EAFF46C0E9FF49
:1017F00045C0FBFF44C0FAFF1100000100019A67D9
:1018000001D001D027D0D58ED58CD59AD596D5507C
:10181000F80B0209D56EF28A000E00010001716F0B
:10182000000E0001706F000E00010001756F000EC8
:101830000001746F000E00010001796F000E0001BD
:10184000786F0001B36F010E000100019A6F000173
:10185000B35100D00001000171517011D8A401D022
:1018600001D009D0B1C070F0B2C071F0AFC072F059
:10187000B0C073F024D00001000175517411D8A4D8
:1018800001D001D009D0B1C074F0B2C075F0AFC0C2
:1018900076F0B0C077F013D00001000179517811D3
:1018A000D8A401D001D00BD0B1C078F0B2C079F08B
:1018B000AFC07AF0B0C07BF002D001D000D01200EF
:1018C00050D007C0D9FF08C0DAFFDF50D8B401D02C
:1018D00001D01DD009C0F6FF0AC0F7FF000EF86E58
:1018E0000C0EF76403D00800F55005D0F6CFE9FFE1
:1018F000F7CFEAFFEF500D6E07C0D9FF08C0DAFF3F
:10190000DF500D18D8B401D001D026D000D009C0C6
:10191000F6FF0AC0F7FF000EF86E0C0EF76403D056
:101920000800F55005D0F6CFE9FFF7CFEAFFEF50FA
:101930000D6E0E6A0D1E0E1E0D4A0E2A07C0D9FF2F
:1019400008C0DAFFDF500F6E0F500D24076E000E37
:101950000E20086E16D015D0074A082A094A0A2A0E
:1019600000D00B06D8A00C060B28D8B40C28D8A49D
:1019700001D001D0A6D700D0000E086E000E076E71
:1019800000D01200000100018F518E11D8B401D097
:1019900001D002D09D9852D00201640E00010001D6
:1019A0009625D96E0201020E000100019721DA6E20
:1019B000DF50D8A401D001D015D0000EAD6E000EBE
:1019C00000010001976F000E0001966F000E5F6E20
:1019D000000E5E6E000E000100018F6F010E00010F
:1019E0008E6F2CD00201640E000100019625D96E85
:1019F0000201020E000100019721DA6E010EDF6282
:101A000001D001D007D0000EAD6E00010001964B51
:101A1000972B14D00201640E000100019625D96EA7
:101A20000201020E000100019721DA6EDF50AD6E57
:101A300000010001964B972B01D000D0120000014D
:101A4000000189518811D8B401D001D015D003010B
:101A5000030E576E0301640E566E01D80CD00500BC
:101A6000FA6E000100018851FD6E00018951FE6E81
:101A7000FF6AFA50120000D0000100018B518A1158
:101A8000D8B401D001D015D00401040E576E040162
:101A9000000E566E01D80CD00500FA6E0001000150
:101AA0008A51FD6E00018B51FE6EFF6AFA501200E2
:101AB00000D0000100018D518C11D8B401D001D0AB
:101AC00015D00401040E576E0401640E566E01D841
:101AD0000CD00500FA6E000100018C51FD6E000172
:101AE0008D51FE6EFF6AFA50120000D074EC11F0B6
:101AF000120041D010C007F011C008F012C009F068
:101B000013C00AF012C001F013C002F01BEC10F079
:101B100001C00BF002C00CF060EC0CF00850071094
:101B2000D8A401D001D005D010C010F011C011F020
:101B300038D0010E1024016E000E1120026E12C06A
:101B4000F6FF13C0F7FF000EF86E0C0EF76403D01B
:101B50000800F55005D0F6CFE9FFF7CFEAFFEF50C8
:101B6000146E1450036E046AC5EC10F001C010F03E
:101B700002C011F000D011501010D8B401D001D023
:101B80000BD010C0D9FF11C0DAFFDF50D8A401D0AC
:101B900001D0B0D701D000D0000E116E000E106E33
:101BA00000D01200056E000E076E055002AE01D087
:101BB00001D009D0016C021ED8B0022A056E010EB8
:101BC000076E055000D004AE01D001D005D0036CE3
:101BD000041ED8B0042A00D004500310D8B401D099
:101BE00001D024D0056E010E066E055005D0D890A8
:101BF00003360436062A00D004AE01D001D0F7D750
:101C000001D000D00350015C04500258D8A001D08C
:101C100001D005D00350015E0450025A00D0D89084
:101C200004320332062EEED701D000D00750D8B4CC
:101C300001D001D005D0016C021ED8B0022A00D01C
:101C400001C001F002C002F000D01200000100014A
:101C500089518811D8A401D001D011D00301030EFD
:101C6000026E0301640E016E07C003F008C004F0A9
:101C700078EC10F005C088F006C089F037D000017C
:101C800000018B518A11D8A401D001D011D00401D8
:101C9000040E026E0401000E016E07C003F008C0BE
:101CA00004F078EC10F005C08AF006C08BF01ED06E
:101CB000000100018D518C11D8A401D001D011D0A8
:101CC0000401040E026E0401640E016E07C003F0ED
:101CD00008C004F078EC10F005C08CF006C08DF060
:101CE00005D0CCEC11F002D001D000D01200ABCF67
:101CF00009F0AECF0AF00A6601D001D02CD0030162
:101D0000000E000100018225D96E0301030E0001BF
:101D100000018321DA6E000EDF6E000E000100016B
:101D2000836F000E0001826F000100018751861150
:101D3000D8B401D001D021D086C005F087C006F00C
:101D40000301030E086E0301000E076E26EC0EF071
:101D500014D013D012D00301000E0001000182251F
:101D6000D96E0301030E000100018321DA6E0AC05F
:101D7000DFFF00010001824B832B120024C001F021
:101D800025C002F01BEC10F001C02CF002C02DF0B9
:101D90002E6A2F6AFF0E2C242A6EFF0E2D202B6E2A
:101DA0002A502424D96E2B502520DA6E000EDF6EC7
:101DB0000201020E026E0201000E016E24C003F049
:101DC00025C004F078EC10F024C00FF025C010F00E
:101DD0000D0E126E0A0E116E0201020E146E020139
:101DE000000E136E26C015F027C016F028C017F09D
:101DF00029C018F0B5EC06F0120024C001F025C08F
:101E000002F01BEC10F001C02CF002C02DF02E6A85
:101E10002F6AFF0E2C242A6EFF0E2D202B6E2A50C7
:101E20002424D96E2B502520DA6E000EDF6E0201BD
:101E3000020E026E0201000E016E24C003F025C0E6
:101E400004F078EC10F024C00FF025C010F00D0E57
:101E5000126E1A0E116E0201020E146E0201000EB5
:101E6000136E26C015F027C016F028C017F029C041
:101E700018F0B5EC06F012000501050E026E050122
:101E8000000E016E0D0E046E280E036EE5EC10F0D0
:101E900056C024F057C025F0F2EC11F056C024F0E3
:101EA00057C025F00D0E276E4D0E266E0501050E4E
:101EB000296E0501000E286EBEEC0EF056C024F00F
:101EC00057C025F00D0E276E380E266E98C028F0EC
:101ED00099C029F0FDEC0EF000010001984B992B00
:101EE00056C005F057C006F0DAEC11F0120007EE0C
:101EF00000F0C80EEE6AE806FDE106EE00F0C80E3E
:101F0000EE6AE806FDE105EE00F0640EEE6AE80612
:101F1000FDE104EE00F0C80EEE6AE806FDE103EE16
:101F200000F0C80EEE6AE806FDE102EE00F0C80E11
:101F3000EE6AE806FDE101EE00F0DC0EEE6AE8066E
:101F4000FDE100EE60F04F0EEE6AE806FDE100EE06
:101F500052F00E0EEE6AE806FDE1000132EF11F0DC
:101F6000000E076E000E066E04500310D8B401D0A8
:101F700001D027D0056E010E086E055005D0D8900F
:101F800003360436082A00D004AE01D001D0F7D7BA
:101F900001D000D0D890063607360350015C0450BB
:101FA0000258D8A001D001D006D00350015E0450E1
:101FB000025A068000D0D89004320332082EEAD7A5
:101FC00000D006C001F007C002F012005B505A10AA
:101FD000D8A401D001D02ED0010101010229D8B42A
:101FE0000329D8B401D001D007D00101010E5B6EE6
:101FF0000101000E5A6E11D0010101017029D8B4FF
:102000007129D8B401D001D008D00101010E5B6E56
:1020100001016E0E5A6E01D000D05B505A10D8B438
:1020200001D001D007D0000E5D6E010E5C6EC58040
:1020300001D000D0120001C005F002C006F003D0AC
:10204000054A062A00D005C0F6FF06C0F7FF000EBD
:10205000F86E0C0EF76403D00800F55005D0F6CFEB
:10206000E9FFF7CFEAFFEF500009D8A401D001D073
:10207000E7D700D001C003F002C004F0031E041E25
:10208000034A042A05500324016E06500420026E00
:1020900000D012000C500B10D8B401D001D023D0C6
:1020A0000D6E010E0E6E0D5005D0D8900B360C360D
:1020B0000E2A00D00CAE01D001D0F7D701D000D04D
:1020C0000B50095C0C500A58D8A001D001D005D0A3
:1020D0000B50095E0C500A5A00D0D8900C320B32CB
:1020E0000E2EEED700D009C009F00AC00AF0120087
:1020F00004500310D8A401D001D012D021D020D098
:102100000FD003C0D9FF04C0DAFF01C0E1FF02C055
:10211000E2FFDFCFE7FF014A022A034A042A00D088
:1021200003C0D9FF04C0DAFFDF50D8A401D001D02A
:10213000E8D700D001C0D9FF02C0DAFF000EDF6E81
:10214000120056C042F057C043F042C024F043C0D2
:1021500025F00D0E276E660E266E0601060E296E00
:102160000601000E286EF7EC08F00601060100518A
:10217000230AD8A401D001D007D042C001F043C047
:1021800002F006EC12F000D01200035001C0D9FF9B
:1021900002C0DAFFDF6201D001D005D001C001F03A
:1021A00002C002F011D001C0D9FF02C0DAFF014A1B
:1021B000022ADF50D8A401D001D0E7D700D0000E0A
:1021C000026E000E016E00D0120001C005F002C0C8
:1021D00006F005D0054A062A034A042A00D003C0A7
:1021E000F6FF04C0F7FF000EF86E05C0D9FF06C069
:1021F000DAFF0800F5CFDFFFDF50D8A401D001D00F
:10220000E9D700D012008050F80B000100017C11CA
:10221000896E000100017C4B7D2B070E000100013F
:102220007C15000100017C6F000E000100017D158E
:1022300000017D6F1200AFEC11F0000E00010001F3
:10224000B06F4F0E0001AF6F00015EEC11F01E0E7B
:1022500000010001B06F780E0001AF6F0001FDECCE
:1022600011F01200D388D38AD38C02EC12F0BEECAA
:1022700011F048EC11F01BEC11F0F28EF28C8AECAC
:1022800011F000D005EC12F0FDD7FCD70CEF00F0F8
:10229000000E00010001896F000E0001886F000E22
:1022A000000100018B6F000E00018A6F000E00011B
:1022B00000018D6F000E00018C6F1200000E0001F6
:1022C0000001B56F010E0001B46F9486948800017F
:1022D0000001AF510001AF25C86EC690C682C6840A
:1022E000C686C68A9D861200000E00010001896F15
:1022F000000E0001886F000E000100018B6F000EC0
:1023000000018A6F000E000100018D6F000E0001B8
:102310008C6F1200000E926E000E00010001B06F73
:10232000FA0E0001AF6F220E00010001B26F060E1F
:102330000001B16F0001FDEC0BF012005AC0D9FF93
:102340005BC0DAFFDE50DD10D8B401D001D003D07D
:102350007AEC0AF003D0D5EC09F000D01200AB8E75
:10236000948E948CAC9CAC8AAC98AC86AB88AC84D4
:10237000B886220EAF6E9D989D8A1200AC9CAC8AE6
:10238000AC98AC84B886220EAF6E948E948CAB9CC5
:10239000AB8EAB98AB881200000E00010001816F7C
:1023A000010E0001806F000E926E898089828984FF
:1023B000FFD712000701070E026E0701000E016E23
:1023C00005C003F006C004F078EC10F01200160E01
:1023D000066E200E056E000E086E000E076E26ECCF
:1023E0000EF0120024C00FF025C010F00D0E126E7A
:1023F000570E116EB5EC06F01200AFC0B6F0B0C0CB
:0E240000B7F01200000E936E120012001200D0
:020000040020DA
:08000000FFFFFFFFFFFFFFFF00
:020000040030CA
:0E000000FF09191EFF8080FF0FC00FE00F40A8
:00000001FF
